{
  "_format": "hh-sol-artifact-1",
  "contractName": "Raffle",
  "sourceName": "contracts/Raffle.sol",
  "abi": [
    {
      "inputs": [
        {
          "internalType": "address",
          "name": "vrfCoordinatorV2",
          "type": "address"
        },
        {
          "internalType": "uint256",
          "name": "entranceFee",
          "type": "uint256"
        },
        {
          "internalType": "bytes32",
          "name": "gasLane",
          "type": "bytes32"
        },
        {
          "internalType": "uint256",
          "name": "subscriptionId",
          "type": "uint256"
        },
        {
          "internalType": "uint32",
          "name": "callbackGasLimit",
          "type": "uint32"
        },
        {
          "internalType": "uint256",
          "name": "interval",
          "type": "uint256"
        }
      ],
      "stateMutability": "nonpayable",
      "type": "constructor"
    },
    {
      "inputs": [
        {
          "internalType": "address",
          "name": "have",
          "type": "address"
        },
        {
          "internalType": "address",
          "name": "want",
          "type": "address"
        }
      ],
      "name": "OnlyCoordinatorCanFulfill",
      "type": "error"
    },
    {
      "anonymous": false,
      "inputs": [
        {
          "indexed": true,
          "internalType": "address",
          "name": "player",
          "type": "address"
        }
      ],
      "name": "RaffleEnter",
      "type": "event"
    },
    {
      "anonymous": false,
      "inputs": [
        {
          "indexed": true,
          "internalType": "uint256",
          "name": "requestId",
          "type": "uint256"
        }
      ],
      "name": "RequestedRaffleWinner",
      "type": "event"
    },
    {
      "anonymous": false,
      "inputs": [
        {
          "indexed": true,
          "internalType": "address",
          "name": "winner",
          "type": "address"
        }
      ],
      "name": "WinnerPicked",
      "type": "event"
    },
    {
      "inputs": [
        {
          "internalType": "bytes",
          "name": "",
          "type": "bytes"
        }
      ],
      "name": "checkUpkeep",
      "outputs": [
        {
          "internalType": "bool",
          "name": "upkeepNeeded",
          "type": "bool"
        },
        {
          "internalType": "bytes",
          "name": "",
          "type": "bytes"
        }
      ],
      "stateMutability": "nonpayable",
      "type": "function"
    },
    {
      "inputs": [],
      "name": "enterRaffle",
      "outputs": [],
      "stateMutability": "payable",
      "type": "function"
    },
    {
      "inputs": [],
      "name": "getEntranceFee",
      "outputs": [
        {
          "internalType": "uint256",
          "name": "",
          "type": "uint256"
        }
      ],
      "stateMutability": "view",
      "type": "function"
    },
    {
      "inputs": [],
      "name": "getInterval",
      "outputs": [
        {
          "internalType": "uint256",
          "name": "",
          "type": "uint256"
        }
      ],
      "stateMutability": "view",
      "type": "function"
    },
    {
      "inputs": [],
      "name": "getLatestTimeStamp",
      "outputs": [
        {
          "internalType": "uint256",
          "name": "",
          "type": "uint256"
        }
      ],
      "stateMutability": "view",
      "type": "function"
    },
    {
      "inputs": [],
      "name": "getNumWords",
      "outputs": [
        {
          "internalType": "uint256",
          "name": "",
          "type": "uint256"
        }
      ],
      "stateMutability": "pure",
      "type": "function"
    },
    {
      "inputs": [],
      "name": "getNumberOfPlayers",
      "outputs": [
        {
          "internalType": "uint256",
          "name": "",
          "type": "uint256"
        }
      ],
      "stateMutability": "view",
      "type": "function"
    },
    {
      "inputs": [
        {
          "internalType": "uint256",
          "name": "index",
          "type": "uint256"
        }
      ],
      "name": "getPlayer",
      "outputs": [
        {
          "internalType": "address",
          "name": "",
          "type": "address"
        }
      ],
      "stateMutability": "view",
      "type": "function"
    },
    {
      "inputs": [],
      "name": "getRaffleState",
      "outputs": [
        {
          "internalType": "enum Raffle.RaffleState",
          "name": "",
          "type": "uint8"
        }
      ],
      "stateMutability": "view",
      "type": "function"
    },
    {
      "inputs": [],
      "name": "getRecentWinner",
      "outputs": [
        {
          "internalType": "address",
          "name": "",
          "type": "address"
        }
      ],
      "stateMutability": "view",
      "type": "function"
    },
    {
      "inputs": [],
      "name": "getRequestConfirmation",
      "outputs": [
        {
          "internalType": "uint256",
          "name": "",
          "type": "uint256"
        }
      ],
      "stateMutability": "pure",
      "type": "function"
    },
    {
      "inputs": [
        {
          "internalType": "bytes",
          "name": "",
          "type": "bytes"
        }
      ],
      "name": "performUpkeep",
      "outputs": [],
      "stateMutability": "nonpayable",
      "type": "function"
    },
    {
      "inputs": [
        {
          "internalType": "uint256",
          "name": "requestId",
          "type": "uint256"
        },
        {
          "internalType": "uint256[]",
          "name": "randomWords",
          "type": "uint256[]"
        }
      ],
      "name": "rawFulfillRandomWords",
      "outputs": [],
      "stateMutability": "nonpayable",
      "type": "function"
    }
  ],
  "bytecode": "0x6101606040523480156200001257600080fd5b50604051620019303803806200193083398181016040528101906200003891906200023b565b858073ffffffffffffffffffffffffffffffffffffffff1660808173ffffffffffffffffffffffffffffffffffffffff1681525050508460a081815250508573ffffffffffffffffffffffffffffffffffffffff1660c08173ffffffffffffffffffffffffffffffffffffffff16815250508360e081815250508261010081815250508163ffffffff166101208163ffffffff16815250506000600160146101000a81548160ff02191690836001811115620000f957620000f8620002d7565b5b02179055504260028190555080610140818152505050505050505062000306565b600080fd5b600073ffffffffffffffffffffffffffffffffffffffff82169050919050565b60006200014c826200011f565b9050919050565b6200015e816200013f565b81146200016a57600080fd5b50565b6000815190506200017e8162000153565b92915050565b6000819050919050565b620001998162000184565b8114620001a557600080fd5b50565b600081519050620001b9816200018e565b92915050565b6000819050919050565b620001d481620001bf565b8114620001e057600080fd5b50565b600081519050620001f481620001c9565b92915050565b600063ffffffff82169050919050565b6200021581620001fa565b81146200022157600080fd5b50565b60008151905062000235816200020a565b92915050565b60008060008060008060c087890312156200025b576200025a6200011a565b5b60006200026b89828a016200016d565b96505060206200027e89828a01620001a8565b95505060406200029189828a01620001e3565b9450506060620002a489828a01620001a8565b9350506080620002b789828a0162000224565b92505060a0620002ca89828a01620001a8565b9150509295509295509295565b7f4e487b7100000000000000000000000000000000000000000000000000000000600052602160045260246000fd5b60805160a05160c05160e0516101005161012051610140516115ba62000376600039600081816107c70152610835015260006106920152600061066f0152600061064e015260006106120152600081816102fa01526103f7015260008181610337015261038b01526115ba6000f3fe6080604052600436106100c25760003560e01c8063473f1ddc1161007f57806391ad27b41161005957806391ad27b414610238578063ca6a9ef814610263578063e55ae4e81461028e578063fd6673f5146102cb576100c2565b8063473f1ddc146101a457806353a2c19a146101cf5780636e04ff0d146101fa576100c2565b806309bc33a7146100c7578063115cbaf5146100f25780631fe543e31461011d5780632cfcc53914610146578063320229eb146101505780634585e33b1461017b575b600080fd5b3480156100d357600080fd5b506100dc6102f6565b6040516100e99190610bba565b60405180910390f35b3480156100fe57600080fd5b5061010761031e565b6040516101149190610c4c565b60405180910390f35b34801561012957600080fd5b50610144600480360381019061013f9190610e00565b610335565b005b61014e6103f5565b005b34801561015c57600080fd5b50610165610576565b6040516101729190610bba565b60405180910390f35b34801561018757600080fd5b506101a2600480360381019061019d9190610eb7565b610580565b005b3480156101b057600080fd5b506101b961074b565b6040516101c69190610f45565b60405180910390f35b3480156101db57600080fd5b506101e4610775565b6040516101f19190610bba565b60405180910390f35b34801561020657600080fd5b50610221600480360381019061021c9190611015565b610784565b60405161022f9291906110f8565b60405180910390f35b34801561024457600080fd5b5061024d610831565b60405161025a9190610bba565b60405180910390f35b34801561026f57600080fd5b50610278610859565b6040516102859190610bba565b60405180910390f35b34801561029a57600080fd5b506102b560048036038101906102b09190611128565b610866565b6040516102c29190610f45565b60405180910390f35b3480156102d757600080fd5b506102e06108ad565b6040516102ed9190610bba565b60405180910390f35b60007f0000000000000000000000000000000000000000000000000000000000000000905090565b6000600160149054906101000a900460ff16905090565b7f000000000000000000000000000000000000000000000000000000000000000073ffffffffffffffffffffffffffffffffffffffff163373ffffffffffffffffffffffffffffffffffffffff16146103e757337f00000000000000000000000000000000000000000000000000000000000000006040517f1cf993f40000000000000000000000000000000000000000000000000000000081526004016103de929190611155565b60405180910390fd5b6103f182826108b9565b5050565b7f0000000000000000000000000000000000000000000000000000000000000000341015610458576040517f08c379a000000000000000000000000000000000000000000000000000000000815260040161044f906111db565b60405180910390fd5b6000600181111561046c5761046b610bd5565b5b600160149054906101000a900460ff16600181111561048e5761048d610bd5565b5b146104ce576040517f08c379a00000000000000000000000000000000000000000000000000000000081526004016104c590611247565b60405180910390fd5b6000339080600181540180825580915050600190039060005260206000200160009091909190916101000a81548173ffffffffffffffffffffffffffffffffffffffff021916908373ffffffffffffffffffffffffffffffffffffffff1602179055503373ffffffffffffffffffffffffffffffffffffffff167f0805e1d667bddb8a95f0f09880cf94f403fb596ce79928d9f29b74203ba284d460405160405180910390a2565b6000600254905090565b600061059a60405180602001604052806000815250610784565b50905060011515811515146105e4576040517f08c379a00000000000000000000000000000000000000000000000000000000081526004016105db906112b3565b60405180910390fd5b60018060146101000a81548160ff0219169083600181111561060957610608610bd5565b5b021790555060007f000000000000000000000000000000000000000000000000000000000000000073ffffffffffffffffffffffffffffffffffffffff16635d3b1d307f00000000000000000000000000000000000000000000000000000000000000007f000000000000000000000000000000000000000000000000000000000000000060037f000000000000000000000000000000000000000000000000000000000000000060016040518663ffffffff1660e01b81526004016106d395949392919061134b565b6020604051808303816000875af11580156106f2573d6000803e3d6000fd5b505050506040513d601f19601f8201168201806040525081019061071691906113b3565b9050807fcd6e45c8998311cab7e9d4385596cac867e20a0587194b954fa3a731c93ce78b60405160405180910390a250505050565b6000600160009054906101000a900473ffffffffffffffffffffffffffffffffffffffff16905090565b6000600163ffffffff16905090565b600060606000600160149054906101000a900460ff1660018111156107ac576107ab610bd5565b5b600060018111156107c0576107bf610bd5565b5b14905060007f0000000000000000000000000000000000000000000000000000000000000000600254426107f4919061140f565b119050600080600080549050119050600080471190508380156108145750825b801561081d5750815b80156108265750805b955050505050915091565b60007f0000000000000000000000000000000000000000000000000000000000000000905090565b6000600361ffff16905090565b600080828154811061087b5761087a611443565b5b9060005260206000200160009054906101000a900473ffffffffffffffffffffffffffffffffffffffff169050919050565b60008080549050905090565b60008080549050826000815181106108d4576108d3611443565b5b60200260200101516108e691906114a1565b905060008082815481106108fd576108fc611443565b5b9060005260206000200160009054906101000a900473ffffffffffffffffffffffffffffffffffffffff16905080600160006101000a81548173ffffffffffffffffffffffffffffffffffffffff021916908373ffffffffffffffffffffffffffffffffffffffff1602179055506000600160146101000a81548160ff0219169083600181111561099157610990610bd5565b5b0217905550600067ffffffffffffffff8111156109b1576109b0610cbd565b5b6040519080825280602002602001820160405280156109df5781602001602082028036833780820191505090505b50600090805190602001906109f5929190610afa565b504260028190555060008173ffffffffffffffffffffffffffffffffffffffff1647604051610a2390611503565b60006040518083038185875af1925050503d8060008114610a60576040519150601f19603f3d011682016040523d82523d6000602084013e610a65565b606091505b505090506001151581151514610ab0576040517f08c379a0000000000000000000000000000000000000000000000000000000008152600401610aa790611564565b60405180910390fd5b8173ffffffffffffffffffffffffffffffffffffffff167f5b690ec4a06fe979403046eaeea5b3ce38524683c3001f662c8b5a829632f7df60405160405180910390a25050505050565b828054828255906000526020600020908101928215610b73579160200282015b82811115610b725782518260006101000a81548173ffffffffffffffffffffffffffffffffffffffff021916908373ffffffffffffffffffffffffffffffffffffffff16021790555091602001919060010190610b1a565b5b509050610b809190610b84565b5090565b5b80821115610b9d576000816000905550600101610b85565b5090565b6000819050919050565b610bb481610ba1565b82525050565b6000602082019050610bcf6000830184610bab565b92915050565b7f4e487b7100000000000000000000000000000000000000000000000000000000600052602160045260246000fd5b60028110610c1557610c14610bd5565b5b50565b6000819050610c2682610c04565b919050565b6000610c3682610c18565b9050919050565b610c4681610c2b565b82525050565b6000602082019050610c616000830184610c3d565b92915050565b6000604051905090565b600080fd5b600080fd5b610c8481610ba1565b8114610c8f57600080fd5b50565b600081359050610ca181610c7b565b92915050565b600080fd5b6000601f19601f8301169050919050565b7f4e487b7100000000000000000000000000000000000000000000000000000000600052604160045260246000fd5b610cf582610cac565b810181811067ffffffffffffffff82111715610d1457610d13610cbd565b5b80604052505050565b6000610d27610c67565b9050610d338282610cec565b919050565b600067ffffffffffffffff821115610d5357610d52610cbd565b5b602082029050602081019050919050565b600080fd5b6000610d7c610d7784610d38565b610d1d565b90508083825260208201905060208402830185811115610d9f57610d9e610d64565b5b835b81811015610dc85780610db48882610c92565b845260208401935050602081019050610da1565b5050509392505050565b600082601f830112610de757610de6610ca7565b5b8135610df7848260208601610d69565b91505092915050565b60008060408385031215610e1757610e16610c71565b5b6000610e2585828601610c92565b925050602083013567ffffffffffffffff811115610e4657610e45610c76565b5b610e5285828601610dd2565b9150509250929050565b600080fd5b60008083601f840112610e7757610e76610ca7565b5b8235905067ffffffffffffffff811115610e9457610e93610e5c565b5b602083019150836001820283011115610eb057610eaf610d64565b5b9250929050565b60008060208385031215610ece57610ecd610c71565b5b600083013567ffffffffffffffff811115610eec57610eeb610c76565b5b610ef885828601610e61565b92509250509250929050565b600073ffffffffffffffffffffffffffffffffffffffff82169050919050565b6000610f2f82610f04565b9050919050565b610f3f81610f24565b82525050565b6000602082019050610f5a6000830184610f36565b92915050565b600080fd5b600067ffffffffffffffff821115610f8057610f7f610cbd565b5b610f8982610cac565b9050602081019050919050565b82818337600083830152505050565b6000610fb8610fb384610f65565b610d1d565b905082815260208101848484011115610fd457610fd3610f60565b5b610fdf848285610f96565b509392505050565b600082601f830112610ffc57610ffb610ca7565b5b813561100c848260208601610fa5565b91505092915050565b60006020828403121561102b5761102a610c71565b5b600082013567ffffffffffffffff81111561104957611048610c76565b5b61105584828501610fe7565b91505092915050565b60008115159050919050565b6110738161105e565b82525050565b600081519050919050565b600082825260208201905092915050565b60005b838110156110b3578082015181840152602081019050611098565b60008484015250505050565b60006110ca82611079565b6110d48185611084565b93506110e4818560208601611095565b6110ed81610cac565b840191505092915050565b600060408201905061110d600083018561106a565b818103602083015261111f81846110bf565b90509392505050565b60006020828403121561113e5761113d610c71565b5b600061114c84828501610c92565b91505092915050565b600060408201905061116a6000830185610f36565b6111776020830184610f36565b9392505050565b600082825260208201905092915050565b7f4e6f7420656e6f75676820455448210000000000000000000000000000000000600082015250565b60006111c5600f8361117e565b91506111d08261118f565b602082019050919050565b600060208201905081810360008301526111f4816111b8565b9050919050565b7f4e6f74206f70656e000000000000000000000000000000000000000000000000600082015250565b600061123160088361117e565b915061123c826111fb565b602082019050919050565b6000602082019050818103600083015261126081611224565b9050919050565b7f55706b656570206e6f74206e6565646564000000000000000000000000000000600082015250565b600061129d60118361117e565b91506112a882611267565b602082019050919050565b600060208201905081810360008301526112cc81611290565b9050919050565b6000819050919050565b6112e6816112d3565b82525050565b600067ffffffffffffffff82169050919050565b611309816112ec565b82525050565b600061ffff82169050919050565b6113268161130f565b82525050565b600063ffffffff82169050919050565b6113458161132c565b82525050565b600060a08201905061136060008301886112dd565b61136d6020830187611300565b61137a604083018661131d565b611387606083018561133c565b611394608083018461133c565b9695505050505050565b6000815190506113ad81610c7b565b92915050565b6000602082840312156113c9576113c8610c71565b5b60006113d78482850161139e565b91505092915050565b7f4e487b7100000000000000000000000000000000000000000000000000000000600052601160045260246000fd5b600061141a82610ba1565b915061142583610ba1565b925082820390508181111561143d5761143c6113e0565b5b92915050565b7f4e487b7100000000000000000000000000000000000000000000000000000000600052603260045260246000fd5b7f4e487b7100000000000000000000000000000000000000000000000000000000600052601260045260246000fd5b60006114ac82610ba1565b91506114b783610ba1565b9250826114c7576114c6611472565b5b828206905092915050565b600081905092915050565b50565b60006114ed6000836114d2565b91506114f8826114dd565b600082019050919050565b600061150e826114e0565b9150819050919050565b7f5472616e73666572204661696c65642100000000000000000000000000000000600082015250565b600061154e60108361117e565b915061155982611518565b602082019050919050565b6000602082019050818103600083015261157d81611541565b905091905056fea26469706673582212205469a24b85fc232522d262f3cbfe88bdbc8754633a4bbf3657b4e8f1ae3be7a864736f6c63430008180033",
  "linkReferences": {},
  "deployedLinkReferences": {}
}